:1000000000080010010800008502000085020000C1
:1000100085020000850200008502000066E3FFEF14
:100020000000000000000000000000008502000049
:10003000850200000000000085020000850200002B
:100040008502000085020000850200008502000094
:100050008502000085020000850200008502000084
:100060008502000085020000850200008502000074
:1000700085020000000000008502000085020000EB
:100080008502000085020000FB04000085020000DC
:100090008502000085020000000000000000000052
:1000A00085020000850200008502000000000000BB
:1000B0008502000085020000850200008502000024
:100124003F0A000004000000000800100000000066
:10013400284E5649435F57414B455F555030203C4C
:100144003D20496E744E756D626572292026262005
:10015400284E5649435F50494F5F30203E3D204969
:100164006E744E756D62657229000000443A5C57E6
:100174004F524B5C4E58505C5445313130305F31F6
:10018400314331345F313334332D454B5C534F4667
:1001940054574152455C5445313131342D454B2D32
:1001A400536F66745061636B5C4941522D4C5043EC
:1001B4002D313131342D454B2854454E4748554156
:1001C400295C47657474696E6753746172746564FD
:1001D4005C6D61696E2E63006D3C3332000000007B
:1001E4002A2A2A2A2A2A2A2A2A2A2A2A2A2A2A2A6B
:1001F4002A2A2A2A2A2A2A2A2A2A2A0A0D00000016
:100204002A20202020202020202054453131313440
:100214002D454B202020202020202A0A0D000000FC
:100224002A2047657474696E67205374617274651B
:1002340064206578616D706C65202A0A0D000000E9
:1002440054656D70202564202020202020200D007E
:10025400496E2066756E6374696F6E20000000003D
:10026400202D2D2000000000202D2D2061737365AA
:100274007274696F6E206661696C65640A000000BF
:10028400FEE7000010B510380400202C07D37F4887
:10029400522201003C3100F0B8FA00F0B5FA200017
:1002A400400980009B490122E306DB0E9A400A5074
:1002B40010BD10B510380400202C07D373487C22DD
:1002C40001003C3100F0A1FA00F09EFA2000400940
:1002D4008000B2490122E306DB0E9A400A5010BDA9
:1002E40038B504000D001038202807D36748912240
:1002F40001003C3100F089FA00F086FAA8480019A0
:100304001038057031BDF8B50F00A24C0021A16171
:10031400A14E316820229143316031680222914319
:1003240031600021E166A1660121E1663168802225
:100334000A4332600021E1630121A163E163994929
:1003440000F092FA05006D1E202D08D34F48B92203
:1003540001003C31A83000F058FA00F055FA25604D
:100364003068802188433060206FFF218843F9B2D0
:10037400014321676068C007FCD50020E0660320C4
:10038400A0660120E066F1BD824903208A6E024026
:1003940005D0022A17D002D3032A02D013E08148E1
:1003A40070478A6B104002D002280AD009D27D48D7
:1003B4000A68D205F4D40968C906C90E491C484321
:1003C40070470020F4E700207047F8B50600924C0F
:1003D4000125A56102E0A069401CA061FFF7D4FFDC
:1003E400A16900F041FA8D498842F4D221682A03B8
:1003F4000A43226021682A040A43226088490D6066
:100404004D60884C217B03220A432273217BFB220B
:100414000A402273217BF7220A4022738027217B22
:10042400394321730830000931004908401831006C
:1004340000F01AFA01002170000A6060207B400677
:10044400400E2073A56078480770F1BD10B40020F9
:10045400002A08E0734B1C7DA406FBD50C781C70A5
:10046400491C401C521EF5D110BC704781B00028B5
:1004740006E00099491E009100990029F9D1401E17
:1004840002D0C1490091F7E701B070473401000080
:100494000020664908606649086066490860664944
:1004A400086066495022CA620A62CA61CA608A60E8
:1004B4004A60B64B1A679A661A66DA659A655A658F
:1004C4001A65DA645A641A649A63DA629A625A623E
:1004D4001A62DA615A611A61DA609A601A60D0228B
:1004E4008A614A610A610A60DA679A675A67DA665A
:1004F40058631863704780B551480168491C01600E
:10050400A448016801220A4302602220FFF7D1FEB9
:1005140001BD000000E100E0F8B5070000204849F3
:1005240008609B4EB168720D0A43B260994C6168D1
:10053400012291436160022162680A436260626839
:100544000B469A436260226F03239A432267012574
:1005540062692A43626162691143616161690422CB
:1005640091436161E060FFF70FFF316800F07CF9AF
:10057400390000F079F9A0612068284320606068A0
:10058400054365602220FFF77DFE10212220FFF73E
:10059400A7FEF1BD088004403882044080E200E0F8
:1005A40000E400E0001BB700F8B5794EB068802184
:1005B40089010143B16078480168102291430160C8
:1005C400012576480560764C2068764F0740FFF792
:1005D400DBFE316800F048F9734900F045F9401C2E
:1005E4000002FF210902014039432160FF20C0437A
:1005F4002168014021600021E1606C4922680A40C1
:100604002260226810400543256020680140802054
:10061400400408432060F1BD80800440811D2C0407
:10062400A44004400080004030800040008003501B
:10063400008002500080015000800050804004403F
:1006440000080010F8B502215948FFF75CFE402469
:1006540058480168214301600168A2020A4302600C
:10066400FFF716FF544801680C4304600168012237
:100674000A430260514902220B6813430B601023A2
:100684004F4C25681D4325604E4C256816022E43A9
:1006940026600C68202525430D600C6823430B60FD
:1006A40001680A430260E1204002FFF78EFE0A203F
:1006B400FFF732FF44A4200000F0FAF8200000F015
:1006C400F7F8424800F0F4F84048203000F0F0F821
:1006D4003E48403000F0ECF83C4800F0E9F8FFF701
:1006E40063FF3B4C3B4D3C4E00271EE004602F490A
:1006F4002B4802680A4002600268FF239A430123E0
:100704001343036002681140802252040A430260CA
:1007140000693249014089092C48603000F0C8F86A
:100724002F4801680029FCD007602E480760AF6796
:10073400AF637760FA208000FFF798FE29480460D1
:10074400AC67AC637460FA208000FFF78FFE264824
:1007540026490968002901D1076000E00460A868FF
:10076400002801D1376000E0346021480068002887
:1007740001D12F6000E02C601E481F490968002940
:10078400B4D10760B3E70000260200000040044033
:1007940078800440004001403882044074400440A2
:1007A40000C00140FF00FFFF20AA4400FFFFFFF844
:1007B4000029DE0780800440008002500080005041
:1007C40000800350008001500A0D0000E401000085
:1007D400FF0700000800005004000250C0FF0000A2
:1007E40000080010000801500001025000040150EC
:1007F400000202504000035000040250C046C046AC
:10080400C046C04600F064F87047F3B583B01400E6
:100814000A250A266846002181726F460937761E2A
:10082400F6B220000A2100F019F8303139702000A6
:100834000A2100F013F80400012C02DB7F1E012EB4
:10084400EDDA039B002268468119049800F056F8FB
:10085400002801D100F07EF805B0F0BDCA0F00D029
:10086400494203105A4012D109421DD088420BD389
:100874000122002300185B418B4200D35B1A5241D2
:10088400F8D319001000704701000020704704B528
:1008940000D34042FFF7E8FF009AD20701D3494250
:1008A400124200D5404204BD08B500F057F808BD17
:1008B4000EB400B582B003A900916B460200012179
:1008C400024800F04CF8029906B00847BF0A00003D
:1008D40000F014F9002801D000F0FAF80020FFF726
:1008E400B1FE00F00DF9000010B5040002E000F0C4
:1008F4000AF9641C20780028F9D110BDF2B507006C
:1009040014001D00104E002C09D03000FFF7ECFF3E
:100914002000FFF7E9FF30001030FFF7E5FF380053
:10092400FFF7E2FF09A0FFF7DFFF0098FFF7DCFF06
:1009340007A0FFF7D9FF2800FFF7D6FF18363000CD
:10094400FFF7D2FF0020F2BD540200003A0000007D
:100954002000000080B5012000F0E8F87047FDB5E4
:1009640086B00C0006E02000069A90470400079821
:10097400401C079007980178002902D1002009B093
:10098400F0BD2529EFD141780091801C0790009893
:10099400253800D18CE0333865D00B380ED0401E9A
:1009A40018D0401F16D0801F5DD0401E62D0C01EDC
:1009B40069D0801E57D0C01E55D0DBE70898006868
:1009C400011D089A11600168C9B22000069A904777
:1009D4000400CFE708980068011D089A11600568B3
:1009E400002D04D52D212000069A9047040000987C
:1009F4006F2801D1082007E020210143C9B27829DA
:100A040001D00A2000E0102001900B262F0000984E
:100A1400642803D1002D01D538004742761E3800E2
:100A24000199FFF721FF3031C9B23A2902D3009866
:100A34005138091803A880190290017038000199EF
:100A4400FFF712FF070001D0012EE7DA0B20851B08
:100A5400029E2000002DBBD03178069A9047761C68
:100A64006D1EF9D1B4E708980068011D089A116059
:100A74000568BCE708980068011D089A11600568BC
:100A840078200090B3E708980068011D089A116067
:100A94000668300000F054F805002000002D05D051
:100AA4003178069A9047761C6D1EF9D1040061E7EF
:100AB40025212000069A90478AE738B505000C00E6
:100AC400200000F020F8A04200D00025280032BD0C
:100AD40010B5084979441C31074C7C441A34A142AE
:100AE40006D0081D0A68891888470100A142F8D178
:100AF40010BD00BF2CF6FFFF38F6FFFF0120704742
:100B040080B500F027F838B504000025ED43AC4269
:100B14000AD068460470012269460120FFF796FC5A
:100B2400012801D1200032BD280032BD80B5C04665
:100B3400C046024A11001820ABBEFBE726000200A3
:100B440001000A78002A03D0491C0A78002AFBD144
:100B5400081A704707463846FFF7E8FFFBE710B46A
:100B640000210AE00268001DD40702D54C46641E29
:100B740012191160121D1B1FFBD10368001D002BED
:060B8400F0D110BC704727
:0400000500000801EE
:00000001FF
