:020000040000FA
:1000000048020010590200005D0200005F0200007B
:1000100061020000630200006502000000000000B1
:100020000000000000000000000000006702000067
:1000300069020000000000006B0200006D02000079
:1000400001030000010300000103000001030000A0
:100050000103000001030000010300000103000090
:100060000103000001030000010300000103000080
:10007000010300006F0200006F0200006F02000029
:10008000EB0A0000210B00006F0200006F0200006D
:100090006F0200006F0200006F0200006F0200009C
:1000A0006F0200006F0200006F0200006F0200008C
:1000B00001070000D3060000A50600007706000037
:1000C0000348854600F0ECF800480047D5000000E2
:1000D0004802001000F093F82348006840210843CC
:1000E0002149086000F013F9204C2146012000F05E
:1000F00008FA7D21C9001E48006800F0BBF8451EC3
:100100002946002000F04CFD002000F024FD0122D3
:100110000021022000F07CFC25E016480068002841
:1001200008D014480068C82804D8002211460220CC
:1001300000F063FC0F480068C8280BD90D48006820
:10014000FF219131884205D801220021022000F0D0
:1001500054FC08E007480068FF219131884202D929
:10016000002004490860D8E780800440D8100000CF
:10017000080000102C0000102F49304A11600121A6
:100180002F4A11605160002151600121516000BF70
:100190002B494968C907C90FFAD02A498868400A1B
:1001A00040022021014303221143264A916026493F
:1001B000896B80229143244A916300BF2149C96819
:1001C000C907C90FFAD003211D4A116301215163E8
:1001D000002151630121516300BF1949496BC907CF
:1001E000C90FFAD00121164A9163144909688900A0
:1001F000164A116011460968154A1160704700B52A
:10020000022010490860002008620F48806B2021FE
:1002100088430D498863002300E05B1CFF2BFCD959
:10022000FFF7AAFF0648403000680121090408438F
:100230000849086000BD0000001BB7000000001066
:10024000408004400080044000820440040000100C
:10025000080000108080044005480047FEE7FEE7E4
:10026000FEE7FEE7FEE7FEE7FEE7FEE7FEE7FEE766
:10027000C100000030B50B460146002020220124B9
:1002800009E00D46D5409D4205D31D469540491BCA
:100290002546954040191546521E002DF1DC30BD13
:1002A000064C0125064E05E02046E36807C82B43AF
:1002B00098471034B442F7D3FFF706FFC80E00008A
:1002C000D80E000002E008C8121F08C1002AFAD1A7
:1002D00070477047002001E001C1121F002AFBD1C6
:1002E0007047000000000050000001500000025064
:1002F000000003500000000000000000FFFFFFFFAF
:10030000A249C868002800D0886000BF704710B5B7
:100310009E48806B702188439C498863002408E0D4
:1003200060B2C206D20E01219140994A116000BF0D
:10033000641C282CF4D39748C068C008C0009549B5
:10034000C8600846C068E12108439249C86000229D
:100350001146104600F05CFB8E480069C008C000E2
:100360008C490861084600692021084389490861D1
:1003700000220121104600F04BFB8648C069C008EE
:10038000C0008449C8610846C069202108438149EA
:10039000C86100220221104600F03AFB7D48C06A85
:1003A000C008C0007B49C8620846C06A20210843D3
:1003B0007849C86200220321104600F029FB7548E5
:1003C000006BC008C000734908630846006B202119
:1003D00008437049086300220421104600F018FB0E
:1003E0006C48406BC008C0006A4948630846406BCF
:1003F000202108436749486300220521104600F088
:1004000007FB64484030C068C008C0006249C8604B
:100410000846C068202108435F49C86000220621C1
:10042000104600F0F5FA5C480069C008C0005A495F
:1004300008610846006920210843574908610022E5
:100440000721104600F0E4FA5348006AC008C000D3
:10045000514908620846006A202108434E49086253
:1004600000220821104600F0D3FA4B48406AC00829
:10047000C000494948620846406A2021084346496D
:10048000486200220921104600F0C2FA4248806A00
:10049000C008C000404988620846806AE1210843DC
:1004A0003D49886200220A21104600F0B1FA3A481C
:1004B000406BC008C000384948630846406BE121E2
:1004C00008433549486300220B21104600F0A0FA8A
:1004D0003148806BC008C0002F4988630846806B94
:1004E000E12108432C49886300221146012000F0D5
:1004F0008FFA00202549086028488860284848600D
:1005000010BD224A926B214B5A631A461163002890
:1005100005D0244A126904231A43224B1A6130BFC2
:100520007047214909680122D20211421AD01E499E
:1005300008681E4908431C49086049681C4A9142E2
:100540000ED1194989681B4A914209D11649C968D7
:10055000194A914204D114490969184A914214D0A8
:1005600000BFFEE71249104A5160124991601249DA
:10057000D160124911610B49096904221143094AEA
:1005800011610221084A116030BF704700820440A7
:1005900000E100E00040044040400440FFFFFFFF56
:1005A000FF1F000000ED00E0008003400008000095
:1005B0007856341221436587341278566587214373
:1005C000002806D001280CD0022812D0032820D100
:1005D00017E0FB4AD26901238B401A43F84BDA61DA
:1005E00018E0F84AD26901238B401A43F54BDA61CF
:1005F00010E0F54AD26901238B401A43F24BDA61CD
:1006000008E0F24AD26901238B401A43EF4BDA61CA
:1006100000E000BF00BF704710B502460020002A6E
:1006200006D0012A0CD0022A12D0032A20D117E0CA
:10063000E34B9B6901248C40234200D0012018E049
:10064000E04B9B6901248C40234200D0012010E044
:10065000DD4B9B6901248C40234200D0012008E03F
:10066000DA4B9B6901248C40234200D0012000E03A
:1006700000BF00BF10BD10B5D5480068401CD4496C
:10068000086001210020FFF7C7FF0446002C08D0B6
:10069000D0480068401CCF49086001210020FFF7C6
:1006A0008FFF10BD10B5CC480068401CCA490860D7
:1006B00001210846FFF7B0FF0446002C08D0C748C8
:1006C0000068401CC549086001210846FFF778FF13
:1006D00010BD10B5C2480068401CC1490860012126
:1006E0000220FFF799FF0446002C08D0BD4800689F
:1006F000401CBC49086001210220FFF761FF10BDCA
:1007000010B5B9480068401CB749086001210320B2
:10071000FFF782FF0446002C08D0B4480068401C54
:10072000B249086001210320FFF74AFF10BD10B550
:10073000AF48006840210843AD4908601F2000F021
:100740008EF91E2000F08BF91D2000F088F91C2086
:1007500000F085F910BD70B5049C002806D0012872
:1007600038D002286AD003287BD19CE0002A18D117
:10077000934D6D6801268E40B543914E7560002BF8
:1007800007D13546AD6801268E40B5438C4EB56025
:100790000EE08B4DAD6801268E403543884EB56026
:1007A00006E0874D6D6801268E403543844E7560A6
:1007B000002C07D1824DED6801268E40B543804E56
:1007C000F56006E07E4DED6801268E4035437C4E97
:1007D000F5609DE0002A18D17A4D6D6801268E40A3
:1007E000B543784E7560002B07D13546AD680126BC
:1007F0008E40B543734EB5600EE0724DAD68012674
:100800008E4035436F4EB56006E06E4D6D68012633
:100810008E4035436B4E7560002C07D1694DED68F5
:1008200001268E40B543674EF56006E0654DED68E4
:1008300001268E403543634EF56069E0002A19D1E8
:10084000614D6D6801268E40B5435F4E7560002B8B
:1008500008D13546AD6801268E40B5435A4EB56085
:100860000FE054E0584DAD6801268E403543564E9A
:10087000B56006E0544D6D6801268E403543524EFA
:100880007560002C07D1504DED6801268E40B543B0
:100890004D4EF56006E04C4DED6801268E40354327
:1008A000494EF56034E0002A18D1484D6D680126A4
:1008B0008E40B543454E7560002B07D13546AD6877
:1008C00001268E40B543414EB5600EE03F4DAD6808
:1008D00001268E4035433D4EB56006E03B4D6D68C8
:1008E00001268E403543394E7560002C07D1374DB7
:1008F000ED6801268E40B543344EF56006E0334D79
:10090000ED6801268E403543304EF56000E000BFB3
:1009100000BF70BD002806D001280CD0022812D0DC
:10092000032820D117E0264A126901238B401A437D
:10093000234B1A6118E0234A126901238B401A43A2
:10094000204B1A6110E0204A126901238B401A43A0
:100950001D4B1A6108E01D4A126901238B401A439E
:100960001A4B1A6100E000BF00BF7047002806D094
:1009700001280CD0022812D003283BD117E0104ADE
:10098000126901238B409A430D4B1A6133E00D4AE3
:10099000126901238B409A430A4B1A612BE00A4AE1
:1009A000126901238B409A43074B1A6123E0074ADF
:1009B000136901228A409343044A13611BE000003B
:1009C00000800050008001500080025000800350E1
:1009D0000C0000101C00001010000010200000107F
:1009E000140000102400001018000010280000104F
:1009F0008080044000BF00BF704730B513468B4075
:100A000084001A4D2D5901248C40A4002B5130BD77
:100A100030B5002A11D08300144CE3580124E403BC
:100A20001B191B6801248C40234384000F4D2C5953
:100A30000125ED036419236010E083000B4CE3589B
:100A40000124E4031B191B6801248C40A343840088
:100A5000064D2C590125ED036419236030BDC206F3
:100A6000D20E01219140024A11607047E402000059
:100A700000E100E070B504460D46002C19D10220BB
:100A8000F84948600020C860F749F8480068FFF757
:100A9000F1FB6843F3498861FF2008600420486146
:100AA0000120486000BFEF484068C007C00FFAD17E
:100AB0001AE0012C18D10220ED4948600020C860DE
:100AC000E949EA480068FFF7D5FB6843E8498861CF
:100AD000FF200860042048610120486000BFE4480E
:100AE0004068C007C00FFAD170BDDE480068C0077B
:100AF000C00F07D00120DB490860DE480068401CB9
:100B0000DC490860D74800681021084207D010204F
:100B1000D4490860D8480068401CD749086070472D
:100B2000D3480068C007C00F07D00120D049086033
:100B3000D2480068401CD1490860CD4800681021A7
:100B4000084207D01020CA490860CD480068401C00
:100B5000CB4908607047002803D10121C14A516088
:100B600002E00121C24A51607047002803D10021F0
:100B7000BC4A516002E00021BD4A51607047014605
:100B8000002906D1B74A506802221043B54A506086
:100B900005E0B74A506802221043B54A50607047DA
:100BA00070B504460D46002C38D1B6480068802147
:100BB0000843B4490860B448C069C008C000B249DD
:100BC000C8610846C06902210843AF49C861AF48FF
:100BD000006AC008C000AD4908620846006A0221E8
:100BE0000843AA4908620846406AC008C000486233
:100BF0000846406A02210843A449486200209D49F2
:100C000008609D490860974885610520954988627C
:100C100003204861102000F04DF939E0012C37D154
:100C20009848006821020843964908609648406940
:100C3000C008C00094494861084640690121084342
:100C4000914948610846806BC008C0008863084627
:100C5000806B012108438C4988638C48C06AC008B6
:100C6000C0008A49C8620846C06A02210843874911
:100C7000C862002081490860814908607C4885611C
:100C800005207B49886203204861112000F012F999
:100C900070BDF8B506460D4614461F463046FFF7B0
:100CA00064FF012E5BD17748006831020843754923
:100CB0000860774820436E49C863E007C00F0BD037
:100CC0007148806BC008C0006F4988630846806B1C
:100CD000012108436C498863022004420BD06B4811
:100CE000C06AC008C0006949C8620846C06A0221DB
:100CF00008436649C862082020436649486366483D
:100D0000056000685A494862634800684008886185
:100D1000614800684008C8615F4800684008086290
:100D20005E484861002F16D057484069C008C0008F
:100D300055494861084640691121084352494861B4
:100D40005748006857498843554908600F2048496B
:100D5000086007208862112000F0ACF850E0494894
:100D6000006880210843474908604F4820433D49B7
:100D7000C863E007C00F0BD04448006AC008C00039
:100D8000424908620846006A022108433F49086256
:100D9000022004420BD03D48406AC008C0003B49D5
:100DA00048620846406A02210843384948620420E4
:100DB00004420BD03548806AC008C00033498862BD
:100DC0000846806A0321084330498862082020438E
:100DD000364948633648056000682249486234480D
:100DE000006840088861324800684008C86130489F
:100DF00000684008086229484861102000F05AF84D
:100E0000F8BD002816D0002906D0012907D00229F4
:100E100008D003290CD108E0154B9A6109E0144B66
:100E2000DA6106E0124B1A6203E0114B5A6200E0ED
:100E300000BF16E0002906D0012907D0022908D0FA
:100E400003290CD108E0074B9A6109E0054BDA61F0
:100E500006E0044B1A6203E0024B5A6200E000BF56
:100E600000BF704700C00040E80300000800001009
:100E7000000001402C000010340000103000001071
:100E8000380000108080044000400440404004408E
:100E90006805000040000140400000100004000010
:100EA00000800150000100005805000040C00040D3
:100EB0003C000010C206D20E01219140014A11608F
:100EC0007047000000E100E0D80E000000000010B4
:100ED00044000000C4020000001BB700001BB70064
:100EE000001BB70000000000000000000000000030
:100EF00000000000000000000000000000000000F2
:100F000000000000000000000000000000000000E1
:0C0F1000000000000000000000000000D5
:04000005000000C136
:00000001FF
